:020000040800F2
:1000000060CF0120A11A00086503000867030008FB
:100010006B0300086F030008730300080000000072
:10002000000000000000000000000000770300084E
:1000300079030008000000007B0300087D0300082E
:10004000BB1A0008BB1A0008BB1A0008BB1A00083C
:10005000BB1A0008BB1A0008BB1A0008BB1A00082C
:10006000BB1A0008BB1A0008BB1A0008711500086B
:10007000BB1A0008BB1A0008BB1A0008BB1A00080C
:10008000BB1A0008BB1A0008BB1A0008BB1A0008FC
:10009000BB1A0008BB1A0008BB1A0008BB1A0008EC
:1000A000BB1A0008BB1A0008BB1A0008BB1A0008DC
:1000B000BB1A00088F160008BB1A0008BB1A0008FC
:1000C000BB1A0008BB1A0008BB1A0008BB1A0008BC
:1000D000BB1A000819190008BB1A0008BB1A00084F
:1000E000BB1A0008BB1A0008BB1A0008BB1A00089C
:1000F000BB1A0008BB1A0008BB1A000853150008F9
:10010000BB1A0008BB1A0008BB1A0008BB1A00087B
:10011000BB1A0008BB1A0008BB1A0008BB1A00086B
:10012000BB1A0008BB1A0008BB1A0008BB1A00085B
:10013000BB1A0008BB1A0008BB1A0008BB1A00084B
:10014000BB1A0008BB1A0008BB1A0008BB1A00083B
:10015000BB1A0008BB1A0008BB1A0008BB1A00082B
:10016000BB1A0008BB1A0008BB1A0008BB1A00081B
:10017000BB1A0008BB1A0008BB1A0008BB1A00080B
:10018000BB1A0008BB1A0008DFF80CD003F028FFE8
:10019000004800479D01000860CF0120002700258E
:1001A000002400264FF4A06001F08CFCA82001F090
:1001B000ABFA4FF4E13001F04EFB00F00BFF00F022
:1001C000E7F901205B4908604FF4FA7001F0FEFA8C
:1001D000532140F2E73001F015FA00F02FFA00F059
:1001E0000DFA4EF61671884202D153A003F00AFFB1
:1001F00000F0D8FB3221084600F00EFD3F2000F051
:1002000022FD002003F0EDFD022003F0EAFD4FF493
:10021000A071002003F0A7FE4B4908604FF4A071C5
:10022000002003F0A0FE494908604FF4A0710020AF
:1002300003F099FE464908604FF4A071002003F0D6
:1002400092FE444908604048006840B13F48006859
:1002500028B13F48006810B10846006800B901277E
:100260002FB900F058FF01203B49087000265FE0DD
:1002700039480078012825D138480078012821D153
:10028000FF203649087005EB850006EB80114FF41E
:10029000A072334800F031FA00240FE0304810F823
:1002A0001400012101EB44012D4A515C40EA012078
:1002B00000B22749096821F81400641CA02CEDDB6A
:1002C0006D1C27E024480078012823D123480078BA
:1002D00000BBFF202149087005EB850006EB80116B
:1002E0004FF4A0721E4800F008FA00240FE01C48EA
:1002F00010F81400012101EB4401194A515C40EA55
:10030000012000B21349096821F81400641CA02CD4
:10031000EDDB6D1CB5F5486F07D100200E49087064
:1003200000254FF47A7001F051FA0A2001F006FA24
:100330009EE70000AC02404277656C636F6D2074ED
:100340006F20757365210A00000000200400002062
:10035000080000200C0000201300002012000020E4
:1003600008010020704700BFFEE700BFFEE700BFA6
:10037000FEE700BFFEE77047704770477047000018
:100380000CB50020019000907648006840F4803061
:100390007449086000BF7348006800F400300090A2
:1003A0000198401C0190009818B90198B0F5A04F31
:1003B000F1D16C48006800F4003010B101200090C9
:1003C00001E0002000900098012846D165484030A7
:1003D000006840F08050634940310860624800681E
:1003E00040F44040604908605E48083000685D495C
:1003F000083108600846006840F40040086008467C
:10040000006840F4A05008605848091F0860081FA1
:10041000006840F08070091F086000BF5148006804
:1004200000F000700028F9D040F2057050490860D3
:100430004C480830006820F003004A490831086041
:100440000846006840F00200086000BF45480830D8
:10045000006800F00C000828F8D10CBD10B5454824
:10046000006840F47000434908603E48006840F06E
:1004700001003C49086000203A49083108603948C9
:1004800000683D490840374908603C48091D08603C
:10049000081F006820F48020091F086000203149EF
:1004A0000C310860FFF76CFF4FF000603149803974
:1004B000086010BD70B50020002202230024022134
:1004C000284D08352D6805F00C0020B1042806D011
:1004D000082834D107E02A4D2A4E356033E02A4DF2
:1004E000284E35602FE01F4D2D1D2D68C5F380541B
:1004F0001C4D2D1D2D6805F03F0154B1224DB5FB5B
:10050000F1F5184E361D3668C6F3881605FB06F25F
:1005100009E01B4DB5FBF1F5124E361D3668C6F3EA
:10052000881605FB06F20F4D2D1D2D68C5F30145FC
:100530006D1C6B00B2FBF3F5124E356003E0104DFD
:10054000104E356000BF00BF064D08352D68C5F35D
:1005500003150E4E705D0B4D2D68C540094E35607C
:1005600070BD000000380240007000400854400791
:10057000003C024088ED00E0FFFFF6FE1030002452
:100580000024F4001400002000127A00180000205B
:100590001CB50121082001F029FE0121042001F0F1
:1005A00025FE0420009001208DF8040000208DF825
:1005B000060003208DF8050069460E4801F078FB1F
:1005C00004210C4801F0F0FB4FF4807000900120F2
:1005D0008DF8040000208DF8060003208DF805003A
:1005E0006946054801F064FB4FF48071024801F050
:1005F000DBFB1CBD000C02400008024010B50024CB
:100600000020CF490860902000F0C4FD002000F0D9
:10061000C1FD002000F0BEFD002000F0BBFDFF206A
:1006200000F0B8FD44EA0024FF2000F0B3FD0443CD
:100630000120C449C1F8B002204610BD1CB50121FB
:10064000022001F0D3FD4FF48050009001208DF87E
:10065000040000208DF8060003208DF8050001201D
:100660008DF807006946B84801F022FB0120B44923
:10067000086000F0A8FD002000F003FEFFF7BEFFB9
:10068000B24908801CBD10B500240020AC490860A8
:10069000052000F07FFDFF2000F07CFD04460120D6
:1006A000A849C1F8B002204610BD10B5044600208C
:1006B000A3490860012000F06DFD204600F06AFDAE
:1006C0000120A049C1F8B00210BD10B500209C491E
:1006D0000860062000F05EFD01209A49C1F8B002D2
:1006E00010BD10B5002096490860042000F052FDAE
:1006F00001209449C1F8B00210BD2DE9F041064631
:100700000C46174600208E490860032000F042FD89
:10071000C4F3074000F03EFDC4F3072000F03AFDAB
:10072000E0B200F037FD002505E0FF2000F032FDCB
:100730007055681C85B2BD42F7DB01208049086016
:10074000BDE8F08110B500BFFFF79DFF00F001008C
:100750000028F9D110BD2DE9F04106460C46174698
:10076000FFF7B3FF002076490860022000F012FD79
:10077000C4F3074000F00EFDC4F3072000F00AFDAB
:10078000E0B200F007FD002504E0705D00F002FD1E
:10079000681C85B2BD42F8DB012069490860FFF79B
:1007A000D1FFBDE8F0812DE9F04107460E46144621
:1007B000F0B2C0F58075AC4200DC254612E02A4656
:1007C00031463846FFF7C7FFAC4200D10BE02F445B
:1007D0002E44601B84B2B4F5807F02DD4FF4807537
:1007E00000E02546EBE700BFBDE8F08110B5044608
:1007F0002403FFF76AFFFFF7A5FF002050490860B8
:10080000202000F0C7FCC4F3074000F0C3FCC4F391
:10081000072000F0BFFCE0B200F0BCFC0120494919
:10082000C1F8B002FFF78EFF10BD2DE9F05F8146E1
:100830000F461646DFF818B14FEA1738C7F30B0A10
:10084000CAF58054A64200DC344644E04FEA083141
:100850004FF480525846FFF750FF002508E00AEB9E
:1008600005001BF80000FF2800D003E0681C85B2DB
:10087000A542F4DB00BFA54216DA4046FFF7B6FFFB
:10088000002507E019F8050005EB0A010BF8010047
:10089000681C85B2A542F5DB4FEA08314FF480525F
:1008A0005846FFF780FF04E0224639464846FFF7E6
:1008B0007AFFA64200D10FE008F101084FF0000ACC
:1008C000A1442744301B86B2B6F5805F02DD4FF4A9
:1008D000805400E03446B9E700BFBDE8F09F10B592
:1008E000FFF7F3FEFFF72EFF002015490860C72031
:1008F00000F050FC01201349C1F8B002FFF722FFBD
:1009000010BD10B500200E490860B92000F042FC6F
:1009100001200C49C1F8B002032000F00FFF10BD08
:1009200010B5002006490860AB2000F033FC012020
:100930000449C1F8B002032000F000FF10BD000020
:10094000B082404200804042000402402800002063
:100950004802002070B505460C4600F02DFA342000
:1009600000F0D6FA00F069FA08B1012070BDC4F3B6
:10097000002141EA4501C8B200F0CAFA00F05DFA70
:1009800008B10220F2E7E0B200F0C2FA00F055FA36
:1009900008B10320EAE700F031FAF54820F81540E5
:1009A0000020E3E71CB50121052001F01FFC4FF4F6
:1009B0000040009002208DF8040000208DF8060011
:1009C00003208DF8050001208DF807006946E948ED
:1009D00001F06EF94FF4E450009002208DF804000D
:1009E00000208DF8060003208DF8050001208DF809
:1009F00007006946E04801F05BF906220F21DD4857
:100A000001F0E1F906220A21DB4801F0DCF90522B8
:100A10000B21D94801F0D7F906220721D64801F069
:100A2000D2F906220C21D44801F0CDF900F0A6F944
:100A300000210846FFF78EFF04460CB101201CBDC3
:100A40001B210120FFF786FF4FF4D8710220FFF72A
:100A500081FF6C210320FFF77DFF00210620FFF7B7
:100A600079FF10212B20FFF775FF4FF480712F20A5
:100A7000FFF770FF4FF480713020FFF76BFF02210A
:100A80003120FFF767FF08210A20FFF763FF0821E5
:100A90000E20FFF75FFF0020D1E70146B44830F891
:100AA0001100704770B505460E460320FFF7F5FFAD
:100AB000044615B144F0030401E024F00304214688
:100AC0000320FFF747FF0220FFF7E7FF044616B1B8
:100AD00044F0030401E024F0030421460220FFF760
:100AE00039FF70BD70B5044604F007042F20FFF7EE
:100AF000D4FF054625F0070545EA04012F20FFF73E
:100B000029FF3020FFF7C9FF054625F0070545EA14
:100B100004013020FFF71EFF70BD70B5044604F0DD
:100B200007042F20FFF7B9FF054625F0700545EAB9
:100B300004112F20FFF70EFF3020FFF7AEFF054610
:100B400025F0700545EA04113020FFF703FF70BD62
:100B50002DE9F04105460E4617460220FFF79DFF9E
:100B6000044615B144F00C0401E024F00C042146C5
:100B70000220FFF7EFFE2C20FFF78FFF044615B190
:100B800044F0330401E024F0330421462C20FFF725
:100B9000E1FE1EB10520FFF7C0FF02E00020FFF7D5
:100BA000BCFF1FB10720FFF79DFF02E00020FFF709
:100BB00099FFBDE8F08170B506460D4600240EB1E0
:100BC00044F001041DB144F0020444F01404214631
:100BD0003220FFF7BFFE21463320FFF7BBFE70BD7A
:100BE00010B5044604F03F0421462D20FFF7B2FE65
:100BF00044F480712E20FFF7ADFE10BD70B50446A1
:100C00000D4604F0030405F00305E00040EA451139
:100C10000420FFF79FFE70BD70B504460D4604F03A
:100C20003F0405F03F050CB944F040040DB945F010
:100C3000400521463420FFF78DFE45F480713520B4
:100C4000FFF788FE70BD10B5044604F03F040CB9F0
:100C500044F0400421463620FFF77CFE44F48071C6
:100C60003720FFF777FE10BD10B5044604F00F04DF
:100C700021462920FFF76EFE10BD70B505461220F3
:100C8000FFF70BFF044615B144F4807401E024F42F
:100C9000807421461220FFF75DFE70BD70B50646D8
:100CA0000C4606F00306182C00DD1824C4F11800C9
:100CB000C4B21220FFF7F1FE054605F4807545EA3F
:100CC0004615254329461220FFF744FE70BD70B536
:100CD00005460C46002605F00305182C00DD1824F7
:100CE000C4F11800C4B246EA451626433146132023
:100CF000FFF730FE70BD70B505460C46002605F0C6
:100D00000305182C00DD1824C4F11800C4B246EA0B
:100D10004516264331461420FFF71CFE70BD70B502
:100D200005460C46002605F00305182C00DD1824A6
:100D3000C4F11800C4B246EA4516264331461520D0
:100D4000FFF708FE70BD70B505460C46002605F09D
:100D50000305182C00DD1824C4F11800C4B246EABB
:100D60004516264331461620FFF7F4FD70BD0000FE
:100D70002A00002000000240000802401CB50121AA
:100D8000022001F033FAC020009001208DF8040009
:100D900000208DF8060003208DF8050001208DF855
:100DA00007006946884800F083FF012087490860F2
:100DB0008749C1F89C021CBD10B58348006820F427
:100DC0004040814908600846006840F4804008605F
:100DD00001207E49091D08607D49C1F89802042060
:100DE00000F0ACFC00207949091D0860042000F0E7
:100DF000A5FC00207649C1F8980210BD10B57248D4
:100E0000006820F44040704908600846006840F4DB
:100E10008040086000206D4908606D49C1F89C025F
:100E2000042000F08BFC0120684908606849C1F883
:100E30009C02042000F082FC10BD10B50024624822
:100E4000006820F440406049086008460068086077
:100E500001205E49091D086000F070FC01205C491A
:100E6000C1F8980200F06AFC07E0601CC4B2FA2CDA
:100E700003DDFFF7C3FF012010BD54487C38006834
:100E80000028F2D15149086000BFF5E710B50020F5
:100E90004E4908604C48006820F440404A490860C8
:100EA0000846006840F48040086000204849C1F8C6
:100EB0009C02022000F042FC01204449086002200C
:100EC00000F03CFC00204249C1F8980210BD10B56A
:100ED00000203E4908603C48006820F440403A4900
:100EE00008600846006840F48040086001203849E6
:100EF000C1F89C02022000F021FC01203349086067
:100F0000022000F01BFC00203149C1F8980210BDFE
:100F100070B504462C48006820F440402A49086017
:100F20000846006840F480400860002027490860B7
:100F3000002517E0E0092549091D08606006040E38
:100F4000022000F0FBFB01202149C1F89802022099
:100F500000F0F4FB00201D490860022000F0EEFBC9
:100F6000681CC5B2082DE5DB70BD70B505460024D0
:100F70001548006820F4404013490860084600689E
:100F80000860002616E0002010490860022000F0EA
:100F9000D5FB01200E49C1F898026006040E0B48EB
:100FA0007C38006808B1601CC4B2012000F0C6FBA8
:100FB000701CC6B2082EE6DB15B9FFF788FF01E00A
:100FC000FFF764FF204670BD000402409882404253
:100FD000008040421CB50121072001F007F94020A4
:100FE000009000208DF8040003208DF805000120FA
:100FF0008DF807006946304800F05AFE4FF48050E3
:10100000009001208DF8070069462C4800F050FE42
:101010000820009000208DF8040003208DF80500C2
:1010200001208DF807006946254800F041FE4FF485
:101030000060009001208DF8040000208DF806006B
:1010400003208DF8050001208DF8070069461B4834
:1010500000F02EFE4FF40061184800F0A7FE1CBD02
:1010600010B5044614B101201649087015480078DF
:10107000A8B11548006810B11448006878B90A2072
:1010800000F0A4FB00200F4908700F48006808B961
:10109000012010BD0D48006858B90320F9E70A483F
:1010A0000068012805D109480068012801D10549D7
:1010B00008700020EDE70000000802400000024038
:1010C000000402409E000020180241420C8240426F
:1010D0002A48007880280CD12948006900F40020B3
:1010E00018B100202749087006E001202549087042
:1010F00002E0FF202349087070472148B83000689B
:1011000000F4002018B101201F49087002E00020FF
:101110001D490870704710B501210846FFF7C2FC51
:1011200000210120FFF747FD2320FFF759FD002193
:101130000220FFF763FD00231A464FF400711846A2
:1011400000F0B6F800231A464FF48071184600F0FC
:10115000DEF84FF47A5000F001F900F04AF900F09F
:101160009DF9AFF2930009490860AFF27100084998
:10117000086000F01AFA00F00CFA10BD1000002010
:10118000006002401100002012000020A400002096
:10119000A000002010B5044600BF0221424801F023
:1011A00087FF0028F9D021463F4801F038FF00BFF3
:1011B00001213D4801F07CFF0028F9D03A4801F0B8
:1011C0002BFFC0B210BD00B587B00121022001F095
:1011D0000DF80121880301F052F84FF460400590AA
:1011E00002208DF8180000208DF81A0003208DF8D9
:1011F000190001208DF81B0005A92C4800F058FDAE
:1012000005220D21294800F0DEFD05220E21274888
:1012100000F0D9FD05220F21244800F0D4FD012162
:10122000880301F081F800214FF4804001F07CF840
:101230000020ADF800004FF48270ADF802000020ED
:10124000ADF804000220ADF806000120ADF808005A
:101250004002ADF80A003820ADF80C000020ADF8CF
:101260000E000720ADF8100069460F4801F05CFD44
:1012700001210D4801F052FEFF20FFF78BFF07B060
:1012800000BD10B50446084800884FF6C7710840F5
:10129000054908800846008820430880012102484B
:1012A00001F03CFE10BD0000003800400004024088
:1012B0002DE9FF4104460F4615461E460121C8038D
:1012C00000F0DDFF0121C80301F02EF800214FF4EA
:1012D000004001F029F8ADF80070ADF80240ADF81B
:1012E00004600020ADF8060002200290ADF80C501A
:1012F0006946B54801F036FD01220221B24801F0ED
:10130000ACFE0121B04801F015FEBDE8FF812DE9DA
:10131000FF4104460F4615461E4687F48070ADF81F
:101320000000ADF80240ADF804600020ADF8060002
:1013300002200290ADF80C5069464FF0402001F0B9
:1013400043FE012211464FF0402001F086FE0121AC
:101350004FF0402001F0EEFDBDE8FF8170B505467D
:10136000002400260A20B5FBF0F500BF09E004EBDD
:101370008400964931F81000A84200D103E0601CB7
:10138000C4B20B2CF3D300BF002000F000FE0B2CE6
:1013900001D1012070BD04EB84028C4B03EB4202AF
:1013A000918804EB840203EB4202508800F0E8FDD0
:1013B0008748006840F080608549086000BF844825
:1013C000006800F000600028F9D004EB84007F4939
:1013D00001EB4000C68804EB840001EB4000C088AC
:1013E00046EA002646F40076774920310E80002038
:1013F000D0E700B591B00121480500F0F7FE75482F
:1014000001F072FA00BF734801F097FB0028FAD18F
:101410007149704801F018FC002001906A480C30B6
:1014200002906E480068039040200490A020059030
:10143000002006904FF480600790400008908000E4
:10144000099040110A9040020B9000200C900D90E2
:101450000E900F9001A95F4801F0E8FA0022604861
:1014600001685C4801F043FB01215A4801F04BFB45
:1014700001221021574801F0A0FB2F208DF84000D9
:1014800000208DF8410002208DF8420001208DF8E7
:10149000430010A800F01BFB11B000BD00B591B0D7
:1014A0000121480500F0A2FE4A48A83801F01CFAC4
:1014B00000BF4848A83801F040FB0028F9D149494D
:1014C0004448A83801F0C0FB4FF0C0600190464886
:1014D000029046480068039000200490A0200590E8
:1014E000002006904FF48060079040000890800034
:1014F000099040110A9000020B9000200C900D9072
:101500000E900F9001A93348A83801F08FFA0022FD
:10151000374801682F48A83801F0E9FA01212D4821
:10152000A83801F0F0FA012210212A48A83801F069
:1015300044FB0B208DF8400000208DF84100012075
:101540008DF842008DF8430010A800F0C0FA11B0E9
:1015500000BD10B527491F4801F04CFB012806D1FA
:1015600024491C4801F070FB23480068804710BDE7
:1015700010B522491748A83801F03CFB012807D1D3
:101580001E491448A83801F05FFB1D4800688047D9
:1015900010BD10B501210F4801F082FA10BD10B541
:1015A00000210C4801F07CFA10BD10B5012109485A
:1015B000A83801F075FA10BD10B500210548A8380B
:1015C00001F06EFA10BD0000003C004054400008DD
:1015D00000380240B860024000F040AF0800002030
:1015E0000C0000203DF000900C4000400000002066
:1015F0000400002000800028A000002020800010AF
:10160000A40000207FB505460C460121022000F011
:1016100036FE0295ADF804400020ADF80600ADF8A6
:101620000C0001A9324801F020FE01221146304889
:1016300002F0BCFA01212E4801F0A0FE1D208DF819
:10164000000001208DF8010003208DF80200012028
:101650008DF80300684600F03AFA7FBD25480088FF
:10166000C82813DB2448006868B924480078401C67
:1016700022490870084600780F2807DB00201E4921
:101680007C31086002E000201C490870704710B5EA
:101690000121174802F0A1FA012823D1154800883A
:1016A000CD2805DA13480088401C1249088002E062
:1016B000002010490880FFF7D1FF11480088401C26
:1016C0000F49088008460088C82190FBF1F201FB11
:1016D000120038B90B48006808B9012000E000206A
:1016E000084908600121024802F088FA10BD000094
:1016F00000040040A800002030024042AC0000205E
:10170000AA0000208882414210B504466FF0040010
:1017100000F02AFAE11704EB5171C1F3C701394A0D
:1017200011701046007800EB4001C1EBC0104FF67D
:10173000FF7101EAC0003449088010BD0146314AFA
:1017400012784A434FF0E0235A6100229A611A4608
:10175000126942F001021A6100BF4FF0E0221069E5
:1017600000F001021AB100F48032002AF5D04FF0E7
:10177000E022126922F001024FF0E0231A610022F8
:101780009A6170470146204A12884A434FF0E0238D
:101790005A6100229A611A46126942F001021A61E6
:1017A00000BF4FF0E022106900F001021AB100F40E
:1017B0008032002AF5D04FF0E022126922F00102B7
:1017C0004FF0E0231A6100229A61704770B5044619
:1017D0004FF4077094FBF0F0C6B24FF4077094FB1F
:1017E000F0F100FB114085B205E04FF40770FFF700
:1017F000C9FF701EC6B2002EF7D115B12846FFF7FB
:10180000C1FF70BDAE000020B000002070B50246E0
:101810000C46FF25FF2309E012F8010B80EA0301C3
:101820009248405C80EA05039148455C2000A4F1A1
:101830000106B4B2F0D143EA052070BD00BF704785
:1018400000BF8C4A128802F04002002AF9D0C2B2CE
:10185000884B9A80704710B588B00446012108462D
:1018600000F0C4FC0121102000F01AFD072209211C
:10187000814800F0A8FA07220A217F4800F0A3FA65
:101880004FF4C060069002208DF81C008DF81D00FA
:1018900000208DF81E0001208DF81F0006A9764853
:1018A00000F006FA02940020ADF80C00ADF80E002E
:1018B000ADF81000ADF814000C20ADF8120002A92C
:1018C0006C4800F04EFE01216A4800F0D2FE402133
:1018D000684800F0B6FF012240F22551654800F04B
:1018E0007EFF25208DF8040003208DF805000220DE
:1018F0008DF8060001208DF8070001A800F0E7F838
:1019000008B010BD5B49888000BF5A49098801F0C2
:1019100040010029F9D0704770B540F22551554873
:1019200000F098FF00287DD00026524800F0D0FE3D
:10193000C4B2524852490988445452480078012898
:1019400008D151480078012804D14D480088401C36
:101950004B4908805A2C03D04A480078012816D1F8
:10196000012048490870A52C03D047480078012879
:1019700003D101204449087010E05A2C0ED00020F9
:101980003F4908803F4908703F49087006E0002041
:101990003B4908803B4908703B490870384800883B
:1019A000022807D1354840783449097840EA0120B7
:1019B000364908803248008834490988884252D123
:1019C0003248008800284EDD30480088801E2B49B0
:1019D000095C2E480088401E284A105C41EA002617
:1019E0002A480088001F81B2901CFFF70FFFB04209
:1019F00032D12248C0782149897840EA012024491F
:101A000008801E4840791D49097940EA0120214992
:101A100008801F480088C1041E48008801EB003080
:101A20001D4900E020E008600968080BFEF7DEFEB3
:101A30004FF480521848016810480830FEF7B3FE92
:101A40000520FFF7C3FE002504E01449485DFFF7B9
:101A500059FF6D1C072DF8DB002009490880094952
:101A600008700949087000BF002070BDC24000081E
:101A7000C24100080010014000000240481200204E
:101A8000CC000020B4000020B5000020B6000020EB
:101A9000B8000020BA000020C0000020C4000020D0
:101AA0000648804706480047FEE7FEE7FEE7FEE7F8
:101AB000FEE7FEE7FEE7FEE7FEE7FEE75D0400085F
:101AC0008901000832490143324A1160704770B5FC
:101AD000002100230F22C4781CB32E4C246804F488
:101AE000E064C4F5E064C4F30721C1F10404E3B287
:101AF0000A4144789C40E1B28478144021430C07A9
:101B0000210E254C05786155047804F01F05012449
:101B1000AC4005786D11AD0005F1E025C5F8004138
:101B200009E0047804F01F050124AC401B4D067841
:101B3000761145F8264070BD194A0A400243154BFC
:101B40001B1F1A60704739B1124A121D12680243F6
:101B5000104B1B1D1A6006E00E4A121D12688243CC
:101B60000C4B1B1D1A607047042808D14FF0E02170
:101B7000096941F004014FF0E022116107E04FF0E4
:101B8000E021096921F004014FF0E0221161704762
:101B90000000FA050CED00E000E400E080E100E068
:101BA00080FFFF1F10B504469848844208D10121E8
:101BB000084600F086FB0021012000F082FB76E061
:101BC0009348844208D10121022000F07AFB0021D1
:101BD000022000F076FB6AE08E48844208D10121A1
:101BE000042000F06EFB0021042000F06AFB5EE0A0
:101BF0008948844208D10121082000F062FB0021BD
:101C0000082000F05EFB52E08448844208D10121A4
:101C1000102000F056FB0021102000F052FB46E09F
:101C20007F48844208D10121202000F04AFB002196
:101C3000202000F046FB3AE07A48844208D1012196
:101C4000402000F03EFB0021402000F03AFB2EE057
:101C50007548844208D10121802000F032FB002128
:101C6000802000F02EFB22E07048844208D1012140
:101C7000801500F026FB0021A01500F022FB16E0E5
:101C80006B48844208D10121401500F01AFB002165
:101C9000601500F016FB0AE06648844207D1012176
:101CA000001500F00EFB0021201500F00AFB10BD0E
:101CB000F0B50A4600210023002400BF3DE00125C5
:101CC00005FA01F3156805EA03049C4234D105685E
:101CD0004F000326BE40B543056015794E00B54060
:101CE0000668354305601579012D02D01579022D5E
:101CF00016D185684F000326BE40B54385605579EF
:101D00004E00B540866835438560456801268E40A3
:101D1000B5434560456896798E40B6B23543456017
:101D2000C5684F000326BE40B543C560D5794E0057
:101D3000B540C6683543C560491C1029BFD3F0BD06
:101D40004FF6FF7101600021017141718171C17114
:101D5000704708B54FF480320092009A0A4300920F
:101D6000009AC261C161009AC261C2690092C269EF
:101D7000009208BD0246002013690B400BB1012000
:101D800000E0002070470146086980B270470246B3
:101D9000002053690B400BB1012000E00020704788
:101DA0000146486980B2704701837047418370479C
:101DB0000AB1018300E04183704741617047426985
:101DC0004A4042617047F0B5002300244D07ED0EF4
:101DD00002FA05F3CE1000F1200555F826504E0703
:101DE000F70E0F26BE40B543CF1000F1200646F88F
:101DF0002750CE1000F1200555F8265045EA03047F
:101E0000CE1000F1200545F82640F0BD000002404C
:101E10000004024000080240000C02400010024092
:101E20000014024000180240001C02400020024042
:101E30000024024000280240F948006840F00100F8
:101E4000F74908600020F64908310860F448006846
:101E5000F4490840F2490860F348091D0860F34856
:101E6000EF4984310860F0481038091D0860EC48DB
:101E7000006820F48020EA4908600020E8490C311D
:101E80000860E7498C31086070470021E44A921CE1
:101E9000117011460870704710B5014600220023EA
:101EA00000204A11012A02D1DD4C236808E0022AF1
:101EB00003D1DB4C7034236802E0D94C74342368BE
:101EC00001F01F02012494401C400CB1012000E0ED
:101ED000002010BD38B5002000900024002500BF70
:101EE0003120FFF7D9FF05460098401C009000986C
:101EF000B0F5A04F01D0002DF2D03120FFF7CCFF7C
:101F000008B1012400E00024204638BD014600202D
:101F1000C34A106820F0F80040EAC1001060704722
:101F2000C349086070470021BD4A703211701170BA
:101F3000012802D004280AD104E00121B84A7032F5
:101F4000117005E00521B64A7032117000E000BF43
:101F500000BF7047B7490860704770B5049C41EAFC
:101F600082150126C6EB530645EA0645054345EAB8
:101F70000465AB4E361D356070BDAD4908667047CF
:101F8000820142EA0172A64B84331A607047A84965
:101F90008866704710B5830143EA016343EA027320
:101FA0009F4C8834236010BDA14908677047A04941
:101FB000C864704702460020994B0833186820F027
:101FC000EC6042EA01031843954B083318607047F0
:101FD00002460020924B0833186820F0784042EA0D
:101FE000010318438E4B08331860704701460020E8
:101FF0008B4A0832106820F00300084310607047D5
:1020000087480830006800F00C0070470146002047
:10201000834A0832106820F0F000084310607047CF
:10202000014600207E4A0832106820F4E050084340
:102030001060704701460020794A0832106820F489
:10204000604040EAC10010607047F0B500210022F6
:102050000024022500260223714F08373F6807F04D
:102060000C0121B1042905D0082937D105E0724FB0
:10207000076036E0714F076033E0694F3F1D3F68EE
:10208000C7F38056664F3F1D3F6807F03F036EB1B0
:102090006A4FB7FBF3F7DFF888C10CF1040CDCF8EA
:1020A00000C0CCF3881C07FB0CF40CE0624FB7FBBC
:1020B000F3F7DFF86CC10CF1040CDCF800C0CCF3D2
:1020C000881C07FB0CF4564F3F1D3F68C7F30147C0
:1020D0007F1C7D00B4FBF5F7076002E0564F0760F8
:1020E00000BF00BF4E4F08373F6807F0F0010909F5
:1020F000534F7A5C0768D7404760494F08373F68BD
:1021000007F4E051890A4E4F7A5C4768D7408760F0
:10211000434F08373F6807F46041490B484F7A5CEA
:102120004768D740C760F0BD002100F44072B2F5A7
:10213000407F0AD13A4A0832116821F4F811414A25
:1021400002401143364A08321160354A7032126833
:10215000C0F30B031A43324B70331A607047354992
:102160004439086070473349403908607047364940
:102170000860704701460020294A8C32106820F020
:102180001F004A1E1043264A8C32106070470146D9
:102190000020234A8C32106820F4F8504A1E40EA8E
:1021A00002201F4A8C3210607047014600201C4AF2
:1021B0008C32106820F440100843106070470146CC
:1021C0000020174A8C32106820F440000843106049
:1021D000704701460020124A8C32106820F44030CB
:1021E00008431060704719490860704739B10C4ABC
:1021F0003032126802430A4B30331A6006E0084A54
:10220000303212688243064B30331A607047F9B19E
:10221000034A343212680243014B34331A601CE023
:1022200000380240FFFFF6EA1030002400300020A2
:1022300000004742800E47420024F40000127A005A
:10224000CE000020FFFCFF0F5C014742E011474237
:102250008F4A126882438E4B1A60704739B18C4A9C
:10226000121D126802438A4B1B1D1A6006E0884A41
:10227000121D12688243864B1B1D1A60704739B1CC
:10228000834A0C3212680243814B0C331A6006E019
:102290007F4A0C32126882437D4B0C331A607047C0
:1022A00039B17B4A103212680243794B10331A60FD
:1022B00006E0774A103212688243754B10331A6079
:1022C000704739B1724A243A12680243704B243B7A
:1022D0001A6006E06E4A243A126882436C4B243B33
:1022E0001A60704739B16A4A203A12680243684B53
:1022F000203B1A6006E0664A203A12688243644B2B
:10230000203B1A60704739B1614A1C3A1268024397
:102310005F4B1C3B1A6006E05D4A1C3A1268824320
:102320005B4B1C3B1A60704739B1594A143A12682A
:102330000243574B143B1A6006E0554A143A1268A0
:102340008243534B143B1A60704739B1504A103ADC
:10235000126802434E4B103B1A6006E04C4A103A9A
:10236000126882434A4B103B1A60704739B1484AA1
:102370001C3212680243464B1C331A6006E0444A82
:102380001C3212688243424B1C331A60704739B1C9
:102390003F4A2032126802433D4B20331A6006E068
:1023A0003B4A203212688243394B20331A6070470F
:1023B00039B1374A243212680243354B24331A604C
:1023C00006E0334A243212688243314B24331A60C8
:1023D000704739B12E4A2C32126802432C4B2C33F1
:1023E0001A6006E02A4A2C3212688243284B2C33AA
:1023F0001A60704739B1264A303212680243244BC2
:1024000030331A6006E0224A303212688243204B91
:1024100030331A607047012808D11D493C310968E2
:1024200041F008011A4A3C32116007E018493C317A
:10243000096821F00801164A3C321160704739B131
:10244000134A273A12780243114B273B1A7006E0D1
:102450000F4A273A127882430D4B273B1A70704778
:102460000B484030006840F08070094940310860F6
:10247000704701460020064A283A12680A400AB10D
:10248000012000E00020704701492639087070479C
:102490003438024010B50446FA48844208D101217C
:1024A0001020FFF752FF00211020FFF74EFF57E0EA
:1024B000F548844209D101214804FFF735FF002186
:1024C0004FF40030FFF730FF4AE0F048844209D172
:1024D00001218804FFF728FF00214FF48020FFF737
:1024E00023FF3DE0EA48844209D10121C804FFF7F7
:1024F0001BFF00214FF40020FFF716FF30E0E548F6
:10250000844209D101210805FFF70EFF00214FF495
:102510008010FFF709FF23E0DF48844208D1012142
:102520002020FFF712FF00212020FFF70EFF17E009
:10253000DA48844209D101218807FFF7F5FE00211E
:102540004FF08040FFF7F0FE0AE0D548844207D103
:1025500001214005FFF7E8FE00216005FFF7E4FEDA
:1025600010BD2DE9FF4705460E460024A14600BFD9
:10257000A046B08900B100BF2C8A24F44054F088F2
:1025800004432C82AC8941F20C608443B0883189C9
:102590000843718908430443AC81AC8A24F4407435
:1025A000B0890443AC826846FFF74FFDB5488542C9
:1025B00002D0B948854202D1DDF80C9001E0DDF887
:1025C0000890A88900F4004040B109EBC90000EB75
:1025D000091031684900B0FBF1F707E009EBC900C9
:1025E00000EB091031688900B0FBF1F76420B7FBFC
:1025F000F0F004012009642101FB1078A88900F49F
:10260000004040B1322000EBC800B0FBF1F000F018
:102610000700044308E0322000EB08106421B0FBFF
:10262000F1F000F00F0004432C81BDE8FF874FF468
:102630001651016000218180C18001810C214181FE
:1026400000218181704710B502460020108A20F4D5
:1026500070600B884C8823438C882343CC882343A9
:102660001843108210BD0021018041808180C1800B
:10267000704721B1828942F40052828104E082894C
:102680004DF6FF731A4082817047028B02F47F423D
:102690000283028B0A430283704721B1828942F48C
:1026A0000042828103E08289C2F30E028281704778
:1026B00021B1828A42F40062828204E0828A4FF26F
:1026C000FF731A4082827047C1F30802828070470C
:1026D00001468888C0F308007047028A4FF6F073FD
:1026E0001A400282028A0A430282704721B182891B
:1026F00042F00202828104E082894FF6FD731A40A3
:102700008281704782894FF2FF731A4082818289E9
:102710000A4382817047028A4FF6DF731A400282B1
:10272000028A0A430282704721B1028A42F480423F
:10273000028204E0028A4BF6FF731A40028270475D
:10274000818941F001018181704721B1828A42F083
:102750000802828204E0828A4FF6F7731A4082826E
:102760007047028BD2B20283028B42EA01220283BB
:10277000704721B1828A42F02002828204E0828A7C
:102780004FF6DF731A408282704721B1828A42F08D
:102790001002828204E0828A4FF6EF731A4082822E
:1027A0007047828A4FF6FB731A408282828A0A43FC
:1027B0008282704721B1828A42F00202828204E062
:1027C000828A4FF6FD731A40828270471AB1838A5B
:1027D0000B43838202E0838A8B4383827047F0B588
:1027E0000346002400260025002040F66A17B9425F
:1027F00000D100BF1846C1F3421401F01F060127A3
:1028000007FA06F5012C01D10C3004E0022C01D1AD
:10281000103000E014301AB107682F43076002E05F
:102820000768AF430760F0BD02460020B1F5007FA6
:1028300000D100BF13880B400BB1012000E0002045
:10284000704701F40072B2F5007F00D100BFCA43A7
:102850000280704770B50246002400230025002046
:1028600040F66A16B14200D100BFC1F3421501F033
:102870001F03012606FA03F3012D13D19689334075
:1028800017E00000001001400044004000480040F4
:10289000004C00400050004000140140007800400F
:1028A000007C0040022D02D1168A334001E0968A56
:1028B00033400C12012606FA04F41688344013B192
:1028C0000CB1012000E0002070BD10B500220023F3
:1028D00040F66A14A14200D100BF0A1201249440BC
:1028E000A3B2DC43048010BD016821F00101016046
:1028F0000021016041608160C1600161212141616D
:10290000DB49884204D13D21D94A103A91608CE0DC
:10291000D7491831884205D14FF47461D44A103A2E
:10292000916082E0D2493031884205D14FF4741170
:10293000CF4A103A916078E0CD494831884205D1BC
:102940004FF07461CA4A103A91606EE0C849603134
:10295000884204D1C749C64A103AD16065E0C449EB
:102960007831884204D1C449C14A103AD1605CE050
:10297000BF499031884204D1C049BD4A103AD16064
:1029800053E0BB49A831884205D14FF03D51B84AC8
:10299000103AD16049E0BA49884204D13D21B84A91
:1029A000083A116041E0B6491831884205D14FF428
:1029B0007461B34A083A116037E0B1493031884256
:1029C00005D14FF47411AE4A083A11602DE0AC49BC
:1029D0004831884205D14FF07461A94A083A116024
:1029E00023E0A7496031884204D1A249A44A121FBA
:1029F00011601AE0A2497831884204D19E49A04A68
:102A0000121F116011E09E499031884204D19B4908
:102A10009B4A121F116008E09949A831884204D1ED
:102A20004FF03D51964A121F1160704710B50022B9
:102A30000268944B1A40CC680B6823434C692343CB
:102A40008C692343CC6923430C6A23434C6A234398
:102A50008C6A23434C6B23438C6B23431A430260E1
:102A6000426922F00702D1E90B3423431A43426141
:102A70000B6943604B6883608B68C36010BD0021A5
:102A8000016041608160C160016141618161C1613A
:102A9000016241628162C162016341638163704787
:102AA00021B1026842F00102026003E0026822F0F4
:102AB00001020260704721B1026842F400420260E4
:102AC00003E0026822F400420260704721B102680C
:102AD00042F02002026003E0026822F0200202605D
:102AE0007047416070470146486880B2704722B124
:102AF000036843F40023036003E0036823F4002326
:102B000003600161704721B1026842F480220260D3
:102B100003E0026822F48022026070470AB101617A
:102B200000E0C1607047014600200A6802F40022FC
:102B30000AB1012000E000207047014600200A6829
:102B400002F001020AB1012000E0002070470146B6
:102B500000204A6902F03800704730B503460A4643
:102B600000200024464DAB4202D24149103901E019
:102B70004349103902F000550DB14C6800E00C6873
:102B8000414D2C4004EA02050DB1012000E0002077
:102B900030BD02463A4B9A4202D23548103801E025
:102BA0003748103801F000531BB1374B0B40C3605E
:102BB00002E0354B0B408360704710B501F0800395
:102BC0004BB122B1436943F08003436103E04369A1
:102BD00023F08003436180290BD02AB1036801F000
:102BE0001E042343036004E0036801F01E04A343B2
:102BF000036010BD70B50246002000240025204E61
:102C0000B24202D21A4B103B01E01D4B103B1F4E4B
:102C10000E4036B11E2606EAD124166806EA0405DF
:102C200002E0566906F0800501F000560EB15C68BE
:102C300000E01C68144E344004EA010616B10DB1E0
:102C4000012000E0002070BD02460D4B9A4202D2E6
:102C50000748103801E00A48103801F000531BB152
:102C6000094B0B40C36002E0074B0B408360704789
:102C7000106002403D000020400F002000003D2079
:102C8000106402403F801CF07D0F7D0F3C0F3C0F15
:102C900010B50446FB48844208D101218014FFF797
:102CA00054FB0021A014FFF750FB3CE0F64884429F
:102CB00008D101210014FFF737FB00212014FFF792
:102CC00033FB30E0F148844208D10121C013FFF703
:102CD0002BFB0021E013FFF727FB24E0EC488442A4
:102CE00008D101214014FFF730FB00216014FFF7E9
:102CF0002CFB18E0E748844209D101210805FFF7C1
:102D000024FB00214FF48010FFF71FFB0BE0E2488B
:102D1000844208D101214805FFF717FB00214FF439
:102D20000010FFF712FB10BD10B50022028802F45C
:102D300041520B884C8823438C882343CC882343FF
:102D40000C8923434C8923438C892343CC89234317
:102D50001A430280838B4FF2FF74234083830B8AD4
:102D6000038210BD2DE9F04F0025022300244FF00F
:102D7000010900220026002794469046B0F81CA0C6
:102D80004FF2400B0AEA0B0AA0F81CA04FF0020A0F
:102D9000A0F820A0858BD1F808A0BAF1020F01D1CC
:102DA00000BF82E0B1F804A0BAF1000F02D14FF0E9
:102DB000010901E04FF00209DFF8E0A2DAF800A013
:102DC0000AF4000ABAF1000F09D0DFF8D0A2DAF84D
:102DD00000A02AF4000ADFF8C4B2CBF800A0DFF8A4
:102DE000BCA20AF17C0ADAF800A0CAF3881CDFF85A
:102DF000ACA20AF17C0ADAF800A0CAF30278DFF884
:102E00009CA2AAF1040ADAF800A00AF03F07DFF852
:102E10008CA2AAF1040ADAF800A00AF4800ABAF532
:102E2000800F08D1DFF878A2BAFBF7FA0AFB0CFA98
:102E3000BAFBF8F607E0DFF86CA2BAFBF7FA0AFB78
:102E40000CFABAFBF8F6B1F806A0BAF5007F0ED17D
:102E50004FEA162A0AEB8A0A4FEA4A0AD1F808B062
:102E6000BAFBFBFA0AF1050A1FFA8AF20FE04FEAF1
:102E7000491AB6FBFAFA0AEB8A0A4FEA4A0AD1F86B
:102E800008B0BAFBFBFA0AF1050A1FFA8AF24FF002
:102E90000A0AB2FBFAF202F00104A2EB040ACAF336
:102EA0004F034FF6FF7A0AEA0424022B01DBFF2BC3
:102EB00001DD02230024B1F806A04AEA040A4AEA26
:102EC000030AA0F820A0B1F804A0B1F80CB04AEAB7
:102ED0000B0AB1F802B04AEA0B0AB1F800B04AEAAC
:102EE0000B0A4AF4006A4AEA05058583BDE8F08FBB
:102EF0000021018041808180C180018141818181E7
:102F0000C1810721018270470021018041808180B9
:102F1000C1800221816000218181704721B1028836
:102F200042F04002028004E002884FF6BF731A406C
:102F30000280704721B1828B42F48062828304E078
:102F4000828B4FF6FF331A408283704702884FF21C
:102F5000FF731A40028002880A4302807047B1F56D
:102F6000804F04D1028842F48042028004E002884B
:102F70004BF6FF731A40028070474FF6FF62914292
:102F800004D0028842F48072028004E002884FF686
:102F9000FF631A400280704721B1828842F0040228
:102FA000828004E082884FF6FB731A40828070476B
:102FB00021B1828842F01002828004E082884FF6BC
:102FC000EF731A408280704730B500220023848B53
:102FD0004FF240052C40848302240484828B0C88A9
:102FE000B4F5007F01D00C8814B94FF4807308E069
:102FF0000C88B4F5407F03D00C88B4F5807F00D1F5
:1030000000238C888D892C434D882C431C4344F429
:1030100000642243828330BD0146888970478181E4
:10302000704721B1028842F40052028004E0028815
:103030004DF6FF731A4002807047018841F48051B9
:103040000180704702460020012901D0108B00E06A
:10305000908A70470146088A70471AB183880B43EB
:10306000838002E083888B438380704730B50024DF
:1030700000230C110125A540ABB2AAB185881D43E0
:10308000858014E00030014000380040003C0040E2
:103090000034014000500140005401400838024013
:1030A00000127A000024F40085889D43858030BD9D
:1030B0000246002013890B400BB1012000E00020E4
:1030C0007047CA4302817047F0B5024600200024D1
:1030D0000023002501F00F070126BE40B4B20B11FA
:1030E00001269E40B3B2968806EA0305168926405B
:1030F00016B10DB1012000E00020F0BD10B5002296
:1031000001F00F040123A3409AB2D343038110BD01
:1031100010B50446FE48844208D101210846FFF755
:1031200014F900210120FFF710F99DE0B4F1804F60
:1031300008D101210846FFF7F7F800210120FFF729
:10314000F3F891E0F348844208D101210220FFF70F
:10315000EBF800210220FFF7E7F885E0EE48844213
:1031600008D101210420FFF7DFF800210420FFF738
:10317000DBF879E0E948844208D101210820FFF713
:10318000D3F800210820FFF7CFF86DE0E44884422F
:1031900008D101211020FFF7C7F800211020FFF708
:1031A000C3F861E0DF48844208D101212020FFF705
:1031B000BBF800212020FFF7B7F855E0DA48844239
:1031C00008D101210220FFF7C0F800210220FFF7FB
:1031D000BCF849E0D548844209D101210804FFF731
:1031E000B4F800214FF48030FFF7AFF83CE0D0484E
:1031F000844209D101214804FFF7A7F800214FF4C8
:103200000030FFF7A2F82FE0CA48844209D101211B
:103210008804FFF79AF800214FF48020FFF795F813
:1032200022E0C548844208D101214020FFF77CF804
:1032300000214020FFF778F816E0C048844208D10A
:1032400001218020FFF770F800218020FFF76CF843
:103250000AE0BB48844207D101218015FFF764F8DA
:103260000021A015FFF760F810BD00220288A84BCE
:1032700098420ED0AC4B98420BD0B0F1804F08D0A2
:10328000A44B984205D0A44B984202D0A34B98423D
:1032900004D14FF68F731A404B881A43A04B9842C3
:1032A00007D0A04B984204D04FF6FF431A400B8939
:1032B0001A4302804B68C3620B880385944B984283
:1032C00002D0994B984201D18B7A038601238382E5
:1032D00070474FF0FF314160002101800181418042
:1032E000817270470185828270470A4600210188F9
:1032F0004FF68F7319401143018070474162704748
:10330000C16270470146486A70470146088D7047A0
:1033100021B1028842F00202028004E002884FF6E6
:10332000FD731A400280704721B1028842F0040206
:10333000028004E002884FF6FB731A400280704757
:1033400021B1028842F08002028004E002884FF638
:103350007F731A400280704702884FF6F7731A4055
:10336000028002880A430280704702884FF6FF43BA
:103370001A40028002880A430280704721B1028805
:1033800042F00102028004E002884FF6FE731A4008
:103390000280704770B5002400220023058C4FF690
:1033A000FE7635400584028C8388048B4FF68F753A
:1033B0002C40B51E2C400D882C43751E2A408D894B
:1033C0002A434D882A43524DA84202D0564DA84266
:1033D00013D14FF6F7752A40CD892A434FF6FB7576
:1033E0002A408D882A434FF6FF652B404FF6FF5544
:1033F0002B400D8A2B434D8A2B43838004838D6899
:103400004563028470BD70B5002400220023058C42
:103410004FF6EF7635400584028C8388048B48F69E
:10342000FF752C404FF6FF452C400D884FF6FF7678
:1034300006EA05252C434FF6DF752A408D8906EAFA
:1034400005152A434D8806EA05152A43304DA84242
:1034500002D0354DA8421DD14FF67F752A40CD8947
:103460004FF6FF7606EA05152A434FF6BF752A4048
:103470008D8806EA05152A434FF6FF352B404FF29B
:10348000FF752B400D8A06EA85052B434D8A06EA17
:1034900085052B43838004838D688563028470BD1A
:1034A00070B5002400220023058C4FF6FF663540DE
:1034B0000584028C8388848B4FF68F752C404FF6E1
:1034C000FC752C400D882C434FF6FF552A408D8902
:1034D0004FF6FF7606EA05252A434D8806EA0525BC
:1034E0002A430B4DA84202D00F4DA84238D14FF2CB
:1034F000FF752A40CD894FF6FF7606EA05252A4357
:103500004FF6FF352A408D8806EA05252A4319E043
:10351000000001400004004000080040000C004092
:103520000010004000140040000401400040014031
:10353000004401400048014000180040001C0040C9
:10354000002000404EF6FF752B404DF6FF752B40D6
:103550000D8A06EA05152B434D8A06EA05152B430D
:10356000838084838D68C563028470BD70B500223A
:1035700000230024058C4EF6FF7635400584038C2D
:103580008488828B48F6FF752A404FF6FF452A4013
:103590000D884FF6FF7606EA05252A434DF6FF759E
:1035A0002B408D8906EA05352B434D8806EA053503
:1035B0002B43FE4DA84202D0FD4DA84208D14BF648
:1035C000FF752C400D8A4FF6FF7606EA85152C43D1
:1035D000848082838D680564038470BD002101802E
:1035E0004180818081608181C181018241827047F7
:1035F00070B50346002000241846183001258D4080
:10360000ACB21D8CA5431D8409B108290AD100EB79
:10361000610005684FF68F763540056005681543F3
:1036200005600FE00D1FC5F34E052844056848F6F8
:10363000FF763540056005684FF6FF7606EA0226FC
:103640003543056070BD4163704781637047C16356
:103650007047016470470A460021018B4FF68F7353
:1036600019401143018370470A460021018B48F637
:10367000FF7319404FF6FF7303EA022319430183D6
:1036800070470A460021818B4FF68F731940114312
:10369000818370470A460021818B48F6FF731940E9
:1036A0004FF6FF7303EA02231943818370470A46EA
:1036B0000021018B4FF6F7731940114301837047C6
:1036C0000A460021018B4FF2FF7319404FF6FF733A
:1036D00003EA02231943018370470A460021818BC4
:1036E0004FF6F77319401143818370470A46002152
:1036F000818B4FF2FF7319404FF6FF7303EA0223E9
:103700001943818370470A460021018B4FF6FB73F2
:1037100019401143018370470A460021018B4FF67F
:10372000FF3319404FF6FF7303EA02231943018365
:1037300070470A460021818B4FF6FB7319401143F5
:10374000818370470A460021818B4FF6FF33194071
:103750004FF6FF7303EA02231943818370470A4639
:103760000021018B4FF67F7319401143018370478D
:103770000A460021018BC1F30E014FF6FF7303EAE5
:1037800002231943018370470A460021818B4FF6BB
:103790007F7319401143818370470A460021818B52
:1037A000C1F30E014FF6FF7303EA0223194381832D
:1037B00070470A460021018C4FF6FD7319401143F2
:1037C000018470470A460021018C4FF6F7731940B7
:1037D0001143018470470A460021018C4FF6DF73C4
:1037E00019404FF6FF7303EA02131943018470472F
:1037F0000A460021018C4FF67F7319404FF6FF7384
:1038000003EA02131943018470470A460021018C20
:103810004FF6FF5319404FF6FF7303EA0223194393
:10382000018470470A460021018C4FF2FF73194052
:103830004FF6FF7303EA02231943018470470A46D7
:103840000021018C4DF6FF7319404FF6FF7303EA18
:10385000023319430184704730B5002301248C40A2
:10386000A3B2048C9C430484048C02FA01F5ADB22B
:103870002C43048430BD30B5002304248C40A3B213
:10388000048C9C430484048C02FA01F5ADB22C43F1
:10389000048430BD828B4FF2FF331A408283828BC7
:1038A0004FF6FF7303EA01231A4382837047F0B592
:1038B0000C461546002100220026078C4EF6FF7CA0
:1038C00007EA0C070784818B028C4FF6FF7707EA23
:1038D000043640F6FF4739404FF6FF7707EA0527E1
:1038E00039434FF6FF7707EA0337394345F6FF7749
:1038F0003A4046F480573A4381830284F0BD828B7C
:103900004FF6F3731A408283828B0A438283704797
:10391000F0B50C461546002100220026078C4FF614
:10392000FF6C07EA0C070784818B028C4FF6FF7748
:1039300007EA04264FF60C7739404FF6FF7707EA7F
:1039400003172F4339434FF2FF573A4046F480772D
:103950003A4381830284F0BD028B4FF2FF331A4059
:103960000283028B4FF6FF7303EA01231A4302839B
:103970007047F0B50C461546002100220026078C42
:103980004FF6EF7C07EA0C070784018B028C4FF699
:10399000FF7707EA041640F6FF4739404FF6FF77F6
:1039A00007EA033739434FF6FF7703E00000014091
:1039B0000004014007EA052739434FF65F773A4094
:1039C00046F010073A4301830284F0BD028B4FF6A4
:1039D000F3731A400283028B0A4302837047F0B5E7
:1039E0000C46154600210022068C4FF6FE773E401D
:1039F0000684018B028C4FF60C7631407E1C06EA61
:103A000003162E4331434FF6F576324044F001065B
:103A1000324301830284F0BD70B505460C46208810
:103A200050B92389A28861882846FFF7D8FFE1882A
:103A30002846FFF7CBFF25E0208804280AD12389F8
:103A4000A28861882846FFF794FFE1882846FFF79F
:103A500083FF17E0208808280AD12389A28861887B
:103A60002846FFF755FFE1882846FFF748FF09E0A1
:103A70002389A28861882846FFF719FFE188284634
:103A8000FFF708FF70BD0021018041800121818086
:103A90000021C180018170472DE9F04105460C46A7
:103AA00000260127608808B9022600E00026A088C9
:103AB000012801D1022700E001272088A0B923892D
:103AC000A28861882846FFF78AFFE1882846FFF729
:103AD0007DFF23893A4631462846FFF74AFFE188B1
:103AE0002846FFF739FF13E02389A288618828461A
:103AF000FFF73FFFE1882846FFF72EFF23893A466C
:103B000031462846FFF76BFFE1882846FFF75EFF46
:103B1000BDE8F0810146486B70470146886B7047ED
:103B20000146C86B70470146086C70470A884B888D
:103B30001A438B881A43CB881A430B891A434B8943
:103B40001A438B891A43A0F8442070470021018052
:103B500041808180C180018141818181704731B183
:103B6000B0F8442042F40042A0F8442005E0B0F848
:103B70004420C2F30E02A0F84420704721B182888D
:103B800042F00402828004E082884FF6FB731A4000
:103B90008280704721B1828842F00102828004E075
:103BA00082884FF6FE731A40828070471AB183896B
:103BB0000B43838102E083898B4383817047818239
:103BC000704702460020138A0B400BB1012000E031
:103BD00000207047CA430282704730B50246002079
:103BE00000230024158A05EA0103958905EA0104EA
:103BF00013B10CB1012000E0002030BDCA430282A5
:103C0000704741EA0203A0F8483070471AB183892F
:103C10000B43838102E083898B438381704721B109
:103C2000828842F00802828004E082884FF6F773AF
:103C30001A408280704701894FF6F8721140018165
:103C400070470A46002101894FF68F7319401143CE
:103C50000181704730B504460D4629462046FFF7DE
:103C6000F0FF208940F00700208130BD2DE9F041B0
:103C700004460D4616461F46602D06D13B460122DE
:103C800031462046FFF775FE05E03B4601223146EE
:103C90002046FFF7A4FE29462046FFF7D2FF2089E1
:103CA00040F007002081BDE8F08130B50C460021CE
:103CB0000189C9B24FF6FF7505EA0325154325436F
:103CC0002943018130BD2DE9F04105460E461746D6
:103CD0009846002443463A4631462846FFF7E5FF1A
:103CE0002C894FF6F870044044F007044FF68F70AB
:103CF000044044F070042C81BDE8F081F0B5044626
:103D00000D4616461F463B46324629462046FFF7DB
:103D1000CCFF208940F480402081F0BD82884FF69E
:103D20008F731A40828082880A438280704702899A
:103D30004FF6F8731A40028102890A4302817047E4
:103D400002894FF67F731A40028102890A43028179
:103D50007047F0B50C4615461E4600210022002390
:103D60000189028B038C4FF6F877394021434FF6D7
:103D7000FC473A4040F201173A434FF6DD773B40AB
:103D80004FF6FF7707EA06172F433B430181028373
:103D90000384F0BD21B1828842F08002828004E079
:103DA00082884FF67F731A4082807047A0F85010C7
:103DB0007047000070B503460C4603E014F8015B41
:103DC00003F8015B1500A2F10102F7D170BD30B517
:103DD000034601E003F8011B1400A2F10102F9D12E
:103DE00030BD10B504467A4951F824104A0079498B
:103DF00051F824000021FFF7EAFF774951F8242009
:103E000074490C3951F824000021FFF7E0FF01212B
:103E100070480C30015510BD10B50146002300223A
:103E200007E06C4850F8210030F8120000B15B1C2C
:103E3000521C674850F821009042F2D86420584341
:103E4000634C54F82140B0FBF4F0C0B210BD2DE932
:103E5000F04704460F460025A9465E480C30005D39
:103E600020B95C4814380168204688471FB94FF0D4
:103E7000FF30BDE8F087594850F82400B7FBF0F652
:103E8000564850F82400B7FBF0F100FB117000B168
:103E9000761C4F4850F82400451E20E04D4850F84D
:103EA000240030F8150010B909F1010901E04FF0C4
:103EB0000009B14512D14FF0000808E0454850F81C
:103EC000240005EB080220F8126008F10108B04553
:103ED000F4D3424850F824006843CAE76D1E002D11
:103EE000DCDA4FF0FF30C4E72DE9F04104460E461E
:103EF00038480C30005D38B936481438016820461F
:103F000088470120BDE8F081334850F82400B042D2
:103F100017D9324850F82400B6FBF0F12D4850F87C
:103F2000240030F81120002507E00023294850F82C
:103F300024004F1920F817306D1C9542F5DB002046
:103F4000E0E70220DEE770B505460C4604B970BD17
:103F500020480C3850F82500261A31462846FFF72D
:103F6000C3FF00BFF3E770B504460E463146204656
:103F7000FFF76DFF0546681C08B9002070BD1548A5
:103F80000C3850F824002844F8E72DE9F0410446A5
:103F90000F46164631462046FFF759FF0546681C76
:103FA00010B90020BDE8F0810A490C3951F82410FD
:103FB000481932463946FFF7FDFE39462046FFF7DD
:103FC000C2FF04480C3850F824002844EAE70000F7
:103FD000C4420008F4000020DC420008D04200087F
:103FE000064C074D06E0E06840F0010394E8070046
:103FF00098471034AC42F6D3FCF7CAF8E842000800
:1040000008430008014A024900F013B841180008AB
:104010000401002002E008C8121F08C1002AFAD1DA
:1040200070477047002001E001C1121F002AFBD138
:1040300070472DE9F04116460F460446002503E07F
:104040003946B047641C6D1C20780028F8D12846FA
:10405000BDE8F0812003000105000C0001004E04C2
:10406000AD010400130000004006D50002000D0061
:1040700000009D08AD01040009000100800CD5007E
:104080000200060001003A110F01020006000000C4
:10409000C012020103000300010074223C0102006F
:1040A0000300010080255801020003000100E844DC
:1040B0006901020002000000004B890102000200B9
:1040C000000000C1814001C0804101C0804100C1A9
:1040D000814001C0804100C1814000C1814001C0D8
:1040E000804101C0804100C1814000C1814001C0C8
:1040F000804100C1814001C0804101C0804100C1B8
:10410000814001C0804100C1814000C1814001C0A7
:10411000804100C1814001C0804101C0804100C197
:10412000814000C1814001C0804101C0804100C187
:10413000814001C0804100C1814000C1814001C077
:10414000804101C0804100C1814000C1814001C067
:10415000804100C1814001C0804101C0804100C157
:10416000814000C1814001C0804101C0804100C147
:10417000814001C0804100C1814000C1814001C037
:10418000804100C1814001C0804101C0804100C127
:10419000814001C0804100C1814000C1814001C017
:1041A000804101C0804100C1814000C1814001C007
:1041B000804100C1814001C0804101C0804100C1F7
:1041C000814000C0C101C30302C2C60607C705C5BE
:1041D000C404CC0C0DCD0FCFCE0E0ACACB0BC9092F
:1041E00008C8D81819D91BDBDA1A1EDEDF1FDD1D3F
:1041F0001CDC14D4D515D71716D6D21213D311D16F
:10420000D010F03031F133F3F23236F6F737F535BE
:1042100034F43CFCFD3DFF3F3EFEFA3A3BFB39F9EE
:10422000F83828E8E929EB2B2AEAEE2E2FEF2DEDBE
:10423000EC2CE42425E527E7E62622E2E323E1212E
:1042400020E0A06061A163A3A26266A6A767A5653E
:1042500064A46CACAD6DAF6F6EAEAA6A6BAB69A9AE
:10426000A86878B8B979BB7B7ABABE7E7FBF7DBDBE
:10427000BC7CB47475B577B7B67672B2B373B171EE
:1042800070B05090915193535292965657975595BE
:1042900094549C5C5D9D5F9F9E5E5A9A9B5B99596E
:1042A0005898884849894B8B8A4A4E8E8F4F8D4D3E
:1042B0004C8C4484854587474686824243834181AE
:1042C00080400000800C00000078000080070000A3
:1042D00020000000200000002000000000900100ED
:1042E00000000F0000F0000008430008000000205C
:1042F00008010000144000081044000808010020D4
:1043000058CE01002440000800000000000000001A
:10431000000000000000000000FFFF00007A030A18
:104320000000000000000000010203040607080965
:1043300016EF0000000000000000500000004001E7
:104340000000000000000000FF00FF00000000016E
:10435000FF00FF0000002C012C002C002C002C0082
:10436000000032000000000000000000000000001B
:10437000000038000B003200000008000C00930021
:10438000E900000000000000000003001000100021
:10439000000100010200010001003900390039006C
:1043A00039000100010001000000000000000000D1
:1043B00000000000000000000000000000000000FD
:1043C0000000000000000000000000005AA50405E5
:1043D000FF42A000000000000000010203040102EF
:1043E0000304060708090000E33D0008193E000821
:1043F00060220020000000680000001060B2012070
:1044000000000F6800F00010000000000000000035
:040000050800018965
:00000001FF
